S01400004469676974616C57617463682E737265635B
S113000045C0000060C000005EC000005CC000008D
S11300105AC0000030C100006BC10000A8C100003C
S113002052C0000050C00000EEC000004CC00000F0
S1130030BBC0000048C0000046C0000044C000002F
S113004042C0000040C000003EC000003CC00000B0
S11300503AC0000038C0000036C0000034C00000C0
S113006032C0000030C000002EC000002CC00000D0
S11300702AC0000028C0000026C0000024C00000E0
S113008022C0000020C000001EC0000011241FBEBA
S1130090CFEFD0E1DEBFCDBF11E0A0E0B1E0E4E2FC
S11300A0F7E000E00BBF02C007900D92A631B10744
S11300B0D9F721E0A6E1B1E001C01D92A032B20758
S11300C0E1F7C5D22DC39CCF8FEF8ABB84BB80934D
S11300D0640012B80895EF92FF920F931F93CF9389
S11300E0DF938C0164E670E0F4D27B019C01C2E1F1
S11300F0D1E08881E5E6F0E08083C80168EE73E032
S1130100E8D2DB01A85FBE4F8C91809585BB8FE957
S11301109FE00197F1F700C00000898180830AE025
S113012010E0C701B801D5D2DC01A85FBE4F9C9195
S11301308FE7891B85BBAFE9BFE01197F1F700C0DA
S113014000008A818083C901B801C3D2DB01A85FA2
S1130150BE4F2C91209525BBAFE9BFE01197F1F775
S113016000C000002B812083FC01E85FFE4F8081EA
S1130170809585BB8FE99FE00197F1F700C00000EF
S1130180DF91CF911F910F91FF90EF9008951FBCC5
S11301908DE08EBD1DBC1CBC88E09DE39BBD8ABD6B
S11301A087B7806187BF08951F920F920FB60F9291
S11301B011248F939F9380911801909119010196B6
S11301C09093190180931801CC976CF080910201EF
S11301D09091030101969093030180930201109280
S11301E01901109218019F918F910F900FBE0F90DB
S11301F01F90189585B5856085BD84E084BD87B75B
S1130200806487BF08951F920F920FB60F92112436
S11302108F939F9384E084BD809116019091170180
S113022001969093170180931601CE97C4F0109213
S11302301701109216018091000190910101813003
S1130240910529F4109201011092000108C0892B34
S113025031F481E090E090930101809300019F913B
S11302608F910F900FBE0F901F9018958AEA8ABF46
S113027080EF89BF08951F920F920FB60F92112439
S11302800BB60F922F938F939F93EF93FF932FEFC0
S113029080E792E0215080409040E1F700C00000E8
S11302A080E188BF81B110921D0110921C0180E091
S11302B090E00FC0FC01EE5EFE4F208120936500AC
S11302C02FEF25BBEFE9FFE03197F1F700C0000005
S11302D001968430910574F3FF91EF919F918F9172
S11302E02F910F900BBE0F900FBE0F901F9018957B
S11302F01F920F920FB60F9211240BB60F922F93E9
S11303008F939F93EF93FF932FEF81EE94E021500F
S113031080409040E1F700C0000080E288BF81B1D6
S113032081E090E090931D0180931C0180E090E0B7
S11303300FC0FC01EE5EFE4F2081209365002FEF7D
S113034025BBEFE9FFE03197F1F700C0000001960B
S11303508430910574F3FF91EF919F918F912F91C8
S11303600F900BBE0F900FBE0F901F9018951F9209
S11303700F920FB60F9211240BB60F922F938F93F7
S11303809F93EF93FF932FEF81EE94E021508040F1
S11303909040E1F700C0000080E488BF81B182E0B2
S11303A090E090931D0180931C0180E090E00FC0C9
S11303B0FC01EE5EFE4F2081209365002FEF25BBEC
S11303C0EFE9FFE03197F1F700C0000001968430B7
S11303D0910574F3FF91EF919F918F912F910F905D
S11303E00BBE0F900FBE0F901F901895E1E6F0E042
S11303F080818E7F808317B887E886B9089586B197
S1130400806486B9349BFECF24B185B197B1911134
S113041003C091E097B904C097B1913009F417B8BB
S113042090E0982F8827822B089585369105E4F46F
S1130430209100013091010121303105A9F42FEF01
S11304402BBB20910601309107012F5F3F4F309362
S11304500701209306012430310534F024E030E014
S113046030930701209306018E3F9340BCF08091A6
S1130470000190910101019789F480910601909106
S1130480070101979093070180930601059734F4BF
S113049081E090E09093070180930601809106012A
S11304A0909107018230910549F11CF4019749F0BC
S11304B07EC08330910509F43FC0049709F45AC003
S11304C076C031E020E06A3983E078070CF430E04C
S11304D0832F922F21E030E06536710514F020E07F
S11304E030E0821B930B20911A0130911B01820F83
S11304F0931F90931B0180931A0159C06A3923E01A
S113050072071CF08AE090E002C080E090E065365B
S113051071051CF42AE030E002C020E030E0821BC8
S1130520930B20911A0130911B01820F931F90931A
S11305301B0180931A013BC06A3983E078071CF0E1
S11305408CE390E002C080E090E0653671051CF415
S11305502CE330E002C020E030E0821B930B2091BA
S11305601A0130911B01820F931F90931B018093FA
S11305701A011DC06A3923E072071CF088E592E075
S113058002C080E090E0653671051CF428E532E095
S113059002C020E030E0821B930B20911A013091BD
S11305A01B01820F931F90931B0180931A0180916A
S11305B01A0190911B011816190624F010921B01C0
S11305C010921A014130510521F04230510581F059
S11305D0089580911A0190911B01803127E29207BE
S11305E014F08FE097E290931B0180931A01089511
S11305F080911A0190911B01813629E0920714F031
S113060080E699E090931B0180931A0108958091EC
S1130610020190910301CC979CF010920301109277
S113062002018091040190910501019690930501C6
S113063080930401489724F010920501109204015C
S1130640089540911C0150911D01EFCE0895CEDE16
S11306503BDD9DDDCFDD0ADE789480911C01909115
S11306601D018130910511F18230910569F1892BC9
S1130670A1F7809104019091050144E6489F9001FF
S1130680499F300D11248091020190910301820F42
S1130690931F90931F0180931E0181E08BBBB7DFF2
S11306A080911E0190911F0116DDD7CF82E08BBB94
S11306B0A6DEEC01A4DEBC01CE01C3DF80911A01E9
S11306C090911B0108DDC9CF84E08BBB98DE97DED7
S11306D0C4CF97FB072E16F4009406D077FD08D0FC
S11306E00BD007FC05D03EF4909581959F4F08955B
S11306F0709561957F4F0895AA1BBB1B51E107C0FC
S1130700AA1FBB1FA617B70710F0A61BB70B881F9D
S1130710991F5A95A9F780959095BC01CD0108952C
S1070720F894FFCF77
S113072401001400050001003F065B4F666D7D0760
S10907347F6F01020408BE
S9030000FC
